:020000040800F2
:100000000050002095070008B9060008BF06000848
:10001000C5060008CB060008D10600080000000055
:10002000000000000000000000000000D7060008EB
:10003000E306000800000000EF060008FB060008C9
:10004000DD070008DD070008DD070008DD07000800
:10005000DD070008DD070008DD070008DD070008F0
:10006000DD070008DD070008DD070008DD070008E0
:10007000DD070008DD070008DD070008DD070008D0
:10008000DD070008DD070008DD070008DD070008C0
:10009000DD070008DD070008DD070008DD070008B0
:1000A000DD070008DD070008DD070008DD070008A0
:1000B000DD070008DD070008DD070008DD07000890
:1000C000DD070008DD070008DD070008DD07000880
:1000D000DD07000809070008DD070008DD07000844
:1000E000DD070008DD070008DD070008000000004C
:1000F0000000000000000000000000000000000000
:0C01000000000000000000005FF808F1A3
:10010C0010B5054C237833B9044B13B10448AFF345
:10011C0000800123237010BD70000020000000003F
:10012C00A02E000808B5034B1BB103490348AFF3DD
:10013C00008008BD0000000074000020A02E000804
:10014C00034613F8012B002AFBD1181A013870470B
:10015C0080B58CB000AF00F03DFB00F0AFF800F0C4
:10016C001FF900F0F3F800F0E4F84FF48063FB6241
:10017C00FB6A03F500139B01BB6204237B62474BB4
:10018C003B62474BFB61474BBB614FF6FF737B6197
:10019C00642319224449454801F031FDB86A00F046
:1001AC0015F964230F224249404801F028FD396AB1
:1001BC00B86A00F069F9BA6A7B6A1344F96918469F
:1001CC0000F062F97A6A13465B001A44BB6A134466
:1001DC00B969184600F058F97A6A13461B029A1A44
:1001EC00BB6A13447969184600F04EF96423172250
:1001FC0030492E4801F003FDBA6AFB6AD31A18463F
:10020C0000F0E4F864230F222949284801F0F7FC98
:10021C00BA6AFB6AD31A396A184600F035F9BA6A19
:10022C00FB6AD31A0433F969184600F02DF9BA6A3F
:10023C00FB6AD31A0C33B969184600F025F9BA6A6F
:10024C00FB6AD31A03F57F737969184600F01CF921
:10025C0064230E221849154801F0D1FCB86A00F04D
:10026C006BF93861BA6A7B6A1344184600F064F97A
:10027C00F8607A6A13465B001A44BB6A134418464A
:10028C0000F05AF9B8607A6A13461B029A1ABB6AD4
:10029C001344184600F050F97860FEE767452301D7
:1002AC00EFCDAB8904030201B82E00088C000020AE
:1002BC00D42E0008E42E0008FC2E000880B590B067
:1002CC0000AF07F1180328220021184602F04CF960
:1002DC003B1D00221A605A609A60DA601A61022390
:1002EC00BB610123BB621023FB6200237B6307F11C
:1002FC001803184601F01CF80346002B01D000F03F
:10030C0061F90F237B600023BB600023FB6000239B
:10031C003B6100237B613B1D0021184601F08AFAEA
:10032C000346002B01D000F04DF900BF4037BD460D
:10033C0080BD80B500AF00220021252000F083FB9A
:10034C00252000F09CFB00BF80BD000080B500AFF5
:10035C00114B124A1A60104B4FF416525A600E4B46
:10036C0000229A600C4B0022DA600B4B00221A61BF
:10037C00094B0C225A61084B00229A61064B002251
:10038C00DA61054801F0EEFB0346002B01D000F0CA
:10039C0019F900BF80BD00BF8C000020003801405F
:1003AC0080B483B000AF084B9B69074A43F0040349
:1003BC009361054B9B6903F004037B607B6800BF72
:1003CC000C37BD4680BC70470010024080B59AB017
:1003DC0002AF78600023FB647B687B650123BB65FF
:1003EC000023BB640023BB6007F10C033C220021FB
:1003FC00184602F0B9F800F07DFC07F1480207F14D
:10040C004C031146184600F067FD0346002B17D02D
:10041C0000F0A6FCF86507F10800FB6D174A4021B7
:10042C0002F0AAF807F108031846FFF789FE034605
:10043C009AB207F108016423114801F0E0FBFEE7D2
:10044C007B6803F2FF3307F1080000937B680D4AC9
:10045C00402102F091F807F108031846FFF770FEEF
:10046C0003469AB207F108016423054801F0C7FB63
:10047C0000F066FC00BF6037BD4680BD0C2F000845
:10048C008C000020282F0008B0B596B002AF786021
:10049C0039600023FB6007F110033C220021184651
:1004AC0002F062F800F026FC3B6800221C46154660
:1004BC0022462B467968022000F0ACFB0346002B49
:1004CC0017D000F04DFCF86407F10C00FB6C174AD8
:1004DC00402102F051F807F10C031846FFF730FEEB
:1004EC0003469AB207F10C016423114801F087FB13
:1004FC00FEE707F10C007B6800933B680D4A402136
:10050C0002F03AF807F10C031846FFF719FE034600
:10051C009AB207F10C016423054801F070FB00F05E
:10052C000FFC00BF5037BD46B0BD00BF642F0008A4
:10053C008C000020802F000880B596B002AF786048
:10054C000023FB6007F110033C220021184602F047
:10055C000BF87B681B68FB6407F10C00FB6C0093C9
:10056C00FB6C154A402102F007F807F10C03184602
:10057C00FFF7E6FD03469AB207F10C0164230F481E
:10058C0001F03DFB07F10C007B680D4A402101F0A6
:10059C00F3FF07F10C031846FFF7D2FD03469AB29E
:1005AC0007F10C016423054801F029FBFB6C18468C
:1005BC005037BD4680BD00BFB82F00088C0000200E
:1005CC00E02F000880B400AF72B600BFFEE7000059
:1005DC0080B483B000AF0E4B9B690D4A43F001030E
:1005EC0093610B4B9B6903F001037B607B68084BA9
:1005FC00DB69074A43F08053D361054BDB6903F099
:10060C0080533B603B6800BF0C37BD4680BC7047D5
:10061C000010024080B588B000AF786007F110037D
:10062C0000221A605A609A60DA607B681B681C4A68
:10063C00934231D11B4B9B691A4A43F4804393611B
:10064C00184B9B6903F48043FB60FB68154B9B695B
:10065C00144A43F004039361124B9B6903F00403A7
:10066C00BB60BB684FF400733B6102237B610323C7
:10067C00FB6107F1100319460B4800F0D5FC4FF451
:10068C0080633B6100237B610023BB6107F1100396
:10069C001946054800F0C8FC00BF2037BD4680BD98
:1006AC0000380140001002400008014080B400AF47
:1006BC00FEE780B400AFFEE780B400AFFEE780B485
:1006CC0000AFFEE780B400AFFEE780B400AF00BF20
:1006DC00BD4680BC704780B400AF00BFBD4680BC37
:1006EC00704780B400AF00BFBD4680BC704780B57A
:1006FC0000AF00F0B5F800BF80BD000080B500AFC2
:10070C00024801F00FFB00BF80BD00BF8C00002031
:10071C0080B586B000AF7860144A154BD31A7B6154
:10072C007B693B61134B1B68002B02D1114B124AA6
:10073C001A60104B1A687B6813443A699A4207D2C4
:10074C0001F0E8FE03460C221A604FF0FF3309E07B
:10075C00084B1B68FB60074B1A687B681344054AFF
:10076C001360FB6818461837BD4680BD005000204A
:10077C0000040000D00000200801002080B400AF6D
:10078C0000BFBD4680BC70470C480D490D4A002384
:10079C0002E0D458C4500433C4188C42F9D30A4A2A
:1007AC000A4C002301E013600432A242FBD3FFF792
:1007BC00E5FF01F0B5FEFFF7CBFC70470000002011
:1007CC00700000206030000870000020080100203C
:1007DC00FEE7000080B500AF084B1B68074A43F0EA
:1007EC0010031360032000F023F90F2000F008F829
:1007FC00FFF7EEFE0023184680BD00BF002002402C
:10080C0080B582B000AF7860124B1A68124B1B781F
:10081C0019464FF47A73B3FBF1F3B2FBF3F31846BA
:10082C0000F03BF90346002B01D001230EE07B685E
:10083C000F2B0AD8002279684FF0FF3000F003F933
:10084C00064A7B681360002300E001231846083732
:10085C00BD4680BD000000200800002004000020E0
:10086C0080B400AF054B1B781A46054B1B6813442C
:10087C00034A136000BFBD4680BC704708000020CF
:10088C00D400002080B400AF024B1B681846BD4654
:10089C0080BC7047D400002080B485B000AF786075
:1008AC007B6803F00703FB600C4BDB68BB60BA682A
:1008BC004FF6FF031340BB60FB681A02BB6813437F
:1008CC0043F0BF6343F40033BB60044ABB68D3609E
:1008DC0000BF1437BD4680BC704700BF00ED00E080
:1008EC0080B400AF044BDB681B0A03F00703184607
:1008FC00BD4680BC704700BF00ED00E080B483B003
:10090C0000AF0346FB7197F90730002B0BDBFB792B
:10091C0003F01F02064997F907305B09012000FA22
:10092C0002F241F8232000BF0C37BD4680BC704753
:10093C0000E100E080B483B000AF03463960FB7186
:10094C0097F90730002B0ADB3B68DAB20C4997F9B0
:10095C0007301201D2B20B4483F800230AE03B6843
:10096C00DAB20849FB7903F00F03043B1201D2B24F
:10097C000B441A7600BF0C37BD4680BC704700BFD5
:10098C0000E100E000ED00E080B489B000AFF86059
:10099C00B9607A60FB6803F00703FB61FB69C3F184
:1009AC000703042B28BF0423BB61FB690433062B0C
:1009BC0002D9FB69033B00E000237B614FF0FF325F
:1009CC00BB6902FA03F3DA43BB681A407B699A40AD
:1009DC004FF0FF317B6901FA03F3D9437B680B407D
:1009EC00134318462437BD4680BC704780B582B08F
:1009FC0000AF78607B68013BB3F1807F01D30123AA
:100A0C000FE00A4A7B68013B53600F214FF0FF3027
:100A1C00FFF790FF054B00229A60044B07221A60E7
:100A2C00002318460837BD4680BD00BF10E000E02B
:100A3C0080B582B000AF78607868FFF72DFF00BFFB
:100A4C000837BD4680BD80B586B000AF0346B9609F
:100A5C007A60FB7300237B61FFF742FF78617A6851
:100A6C00B9687869FFF790FF024697F90F30114685
:100A7C001846FFF75FFF00BF1837BD4680BD80B535
:100A8C0082B000AF0346FB7197F907301846FFF7A9
:100A9C0035FF00BF0837BD4680BD80B582B000AFC2
:100AAC0078607868FFF7A2FF034618460837BD4602
:100ABC0080BD80B485B000AF78600023FB737B6889
:100ACC0093F82130022B08D07B6804229A637B6850
:100ADC00002283F82020012320E07B681B681A6821
:100AEC007B681B6822F00E021A607B681B681A6810
:100AFC007B681B6822F001021A607B681A6C7B68A9
:100B0C00DB6B012101FA02F25A607B68012283F847
:100B1C0021207B68002283F82020FB7B18461437A9
:100B2C00BD4680BC7047000080B584B000AF7860D3
:100B3C000023FB737B6893F82130022B05D07B6874
:100B4C0004229A630123FB7351E07B681B681A68CB
:100B5C007B681B6822F00E021A607B681B681A689F
:100B6C007B681B6822F001021A607B681B68224AB2
:100B7C00934229D07B681B68204A934222D07B6821
:100B8C001B681F4A93421AD07B681B681D4A93420C
:100B9C0012D07B681B681C4A93420AD07B681B6886
:100BAC001A4A934202D14FF480130EE04FF0807337
:100BBC000BE04FF4803308E04FF4805305E04FF422
:100BCC00807302E0102300E00123114A53607B681C
:100BDC00012283F821207B68002283F820207B6887
:100BEC005B6B002B03D07B685B6B78689847FB7B57
:100BFC0018461037BD4680BD080002401C0002405C
:100C0C003000024044000240580002406C00024098
:100C1C0000000240F0B587B000AFF860B960C7E9DA
:100C2C0000230123FB750023BB7500237B752F4B21
:100C3C001B7E012B01D1022354E02C4B01221A768E
:100C4C004CF2503000F0B2F80346FB75FB7D002BE4
:100C5C0044D1FB68012B02D101237B7507E0FB68B3
:100C6C00022B02D102237B7501E004237B75002348
:100C7C00BB752DE0BB7D5A00BB6802EB030CBB7D42
:100C8C001901D7E90023C1F12006A1F1200022FAB5
:100C9C0001F403FA06F6344323FA00F0044323FA72
:100CAC0001F5A3B21946604600F064F84CF25030DE
:100CBC0000F07CF80346FB750D4B1B690C4A23F0C6
:100CCC0001031361FB7D002B07D1BB7D0133BB7589
:100CDC00BA7D7B7D9A42CDD300E000BF034B00224E
:100CEC001A76FB7D18461C37BD46F0BDD800002097
:100CFC000020024080B483B000AF0023FB710D4B89
:100D0C001B6903F08003002B0DD00A4B0A4A5A6072
:100D1C00084B0A4A5A60074B1B6903F08003002BEF
:100D2C0001D00123FB71FB7918460C37BD4680BC02
:100D3C00704700BF0020024023016745AB89EFCD0F
:100D4C0080B400AF054B1B69044A43F08003136168
:100D5C0000231846BD4680BC704700BF00200240EF
:100D6C0080B400AF024BDB691846BD4680BC7047AF
:100D7C00D800002080B483B000AF78600B467B8035
:100D8C00084B0022DA61084B1B69074A43F0010348
:100D9C0013617B687A881A8000BF0C37BD4680BC13
:100DAC00704700BFD80000200020024080B584B0FE
:100DBC0000AF7860FFF766FDF86010E07B68B3F178
:100DCC00FF3F0CD07B68002B07D0FFF75BFD024682
:100DDC00FB68D31A7A689A4201D2032325E0154B9B
:100DEC00DB6803F00103002BE8D1124BDB6803F046
:100DFC002003002B02D00F4B2022DA600D4BDB6856
:100E0C0003F01003002B0BD10A4BDB6903F0010339
:100E1C00002B05D1074BDB6803F00403002B03D038
:100E2C0000F00AF8012300E0002318461037BD46F5
:100E3C0080BD00BF0020024080B483B000AF00230F
:100E4C007B60234BDB6803F01003002B09D0214B94
:100E5C00DB6943F002031F4AD3617B6843F0100344
:100E6C007B601B4BDB6803F00403002B09D0194B90
:100E7C00DB6943F00103174AD3617B6843F0040339
:100E8C007B60134BDB6903F00103002B0BD0114B80
:100E9C00DB6943F004030F4AD3610D4BDB690C4A49
:100EAC0023F00103D3617B6840F20112934206D117
:100EBC00074BDB69064A23F00103D36102E0044AC5
:100ECC007B68D36000BF0C37BD4680BC704700BF49
:100EDC0000200240D800002080B584B000AF7860BC
:100EEC0039600123FB730023BB602F4B1B7E012B4E
:100EFC0001D1022353E02C4B01221A767B681B682C
:100F0C00022B16D14CF25030FFF750FF0346002B4A
:100F1C0041D1012000F04CF84CF25030FFF746FF65
:100F2C000346FB73214B1B69204A23F00403136116
:100F3C0031E04CF25030FFF739FF0346002B2AD139
:100F4C003B684FF0FF321A607B689B68BB6019E00E
:100F5C00B86800F049F84CF25030FFF727FF034611
:100F6C00FB73124B1B69114A23F002031361FB7BC9
:100F7C00002B03D03B68BA681A600CE0BB6803F521
:100F8C008063BB607B68DB689A027B689B68134458
:100F9C00BA689A42DCD3044B00221A76FB7B1846C3
:100FAC001037BD4680BD00BFD80000200020024095
:100FBC0080B483B000AF7860094B0022DA61094B32
:100FCC001B69084A43F004031361064B1B69054A6D
:100FDC0043F04003136100BF0C37BD4680BC704723
:100FEC00D80000200020024080B483B000AF7860AD
:100FFC000B4B0022DA610B4B1B690A4A43F00203CC
:10100C001361084A7B685361064B1B69054A43F020
:10101C004003136100BF0C37BD4680BC704700BF56
:10102C00D80000200020024080B48BB000AF786064
:10103C00396000237B6200233B6269E101227B6AF9
:10104C0002FA03F3FB613B681B68FA691340BB614E
:10105C00BA69FB699A4240F058813B685B689A4ACE
:10106C0093425ED0984A934275D8984A934258D08E
:10107C00964A93426FD8964A934252D0944A9342DE
:10108C0069D8944A93424CD0924A934263D8924A7C
:10109C00934246D0904A93425DD8122B2AD8122BF9
:1010AC0059D801A252F823F02F1100080911000899
:1010BC001B1100085D110008631100086311000882
:1010CC006311000863110008631100086311000824
:1010DC006311000863110008631100086311000814
:1010EC006311000863110008631100081111000856
:1010FC0025110008794A934213D02CE03B68DB6839
:10110C003B6229E03B68DB6804333B6224E03B68CC
:10111C00DB6808333B621FE03B68DB680C333B62E7
:10112C001AE03B689B68002B02D104233B6213E05E
:10113C003B689B68012B05D108233B627B68FA69ED
:10114C001A6109E008233B627B68FA695A6103E083
:10115C0000233B6200E000BFBB69FF2B01D87B681A
:10116C0001E07B6804337B61BB69FF2B02D87B6A8F
:10117C009B0002E07B6A083B9B003B617B691A6821
:10118C000F213B6901FA03F3DB431A40396A3B69CF
:10119C0001FA03F31A437B691A603B685B6803F03E
:1011AC008053002B00F0B1804D4B9B694C4A43F0AF
:1011BC00010393614A4B9B6903F00103BB60BB685D
:1011CC00484A7B6A9B08023352F82330FB607B6AE7
:1011DC0003F003039B000F2202FA03F3DB43FA68CC
:1011EC001340FB607B68404A934213D07B683F4AB4
:1011FC0093420DD07B683E4A934207D07B683D4AB0
:10120C00934201D1032306E0042304E0022302E00D
:10121C00012300E000237A6A02F00302920093405B
:10122C00FA681343FB602F497B6A9B080233FA6808
:10123C0041F823203B685B6803F48033002B06D015
:10124C002D4B1A682C49BB6913430B6006E02A4BE3
:10125C001A68BB69DB43284913400B603B685B6829
:10126C0003F40033002B06D0234B5A682249BB6988
:10127C0013434B6006E0204B5A68BB69DB431E49A5
:10128C0013404B603B685B6803F48013002B06D063
:10129C00194B9A681849BB6913438B6006E0164BCF
:1012AC009A68BB69DB43144913408B603B685B68ED
:1012BC0003F40013002B21D00F4BDA680E49BB69E5
:1012CC001343CB6021E000BF00003210000031104E
:1012DC00000022100000211000001210000011105C
:1012EC00001002400000014000080140000C0140C9
:1012FC000010014000140140000401400B4BDA685F
:10130C00BB69DB4309491340CB607B6A01337B62C9
:10131C003B681A687B6A22FA03F3002B7FF48EAECB
:10132C0000BF00BF2C37BD4680BC70470004014095
:10133C0080B586B000AF78607B68002B01D10123AB
:10134C0072E27B681B6803F00103002B00F08780BE
:10135C00924B5B6803F00C03042B0CD08F4B5B6837
:10136C0003F00C03082B12D18C4B5B6803F4803315
:10137C00B3F5803F0BD1894B1B6803F40033002B72
:10138C006CD07B685B68002B68D101234CE27B68D6
:10139C005B68B3F5803F06D1804B1B687F4A43F4F2
:1013AC00803313602EE07B685B68002B0CD17B4B89
:1013BC001B687A4A23F480331360784B1B68774A96
:1013CC0023F4802313601DE07B685B68B3F5A02FCA
:1013DC000CD1724B1B68714A43F4802313606F4B22
:1013EC001B686E4A43F4803313600BE06B4B1B6835
:1013FC006A4A23F480331360684B1B68674A23F4F2
:10140C00802313607B685B68002B13D0FFF73AFADC
:10141C00386108E0FFF736FA02463B69D31A642BB1
:10142C0001D9032300E25D4B1B6803F40033002B4E
:10143C00F0D014E0FFF726FA386108E0FFF722FA43
:10144C0002463B69D31A642B01D90323ECE1534BBD
:10145C001B6803F40033002BF0D100E000BF7B6865
:10146C001B6803F00203002B63D04C4B5B6803F04A
:10147C000C03002B0BD0494B5B6803F00C03082BBF
:10148C001CD1464B5B6803F48033002B16D1434BC5
:10149C001B6803F00203002B05D07B681B69012B32
:1014AC0001D00123C0E13D4B1B6823F0F8027B689F
:1014BC005B69DB00394913430B603AE07B681B69BD
:1014CC00002B20D0364B01221A60FFF7DBF9386174
:1014DC0008E0FFF7D7F902463B69D31A022B01D972
:1014EC000323A1E12D4B1B6803F00203002BF0D06A
:1014FC002A4B1B6823F0F8027B685B69DB002749E9
:10150C0013430B6015E0264B00221A60FFF7BAF963
:10151C00386108E0FFF7B6F902463B69D31A022B93
:10152C0001D9032380E11D4B1B6803F00203002B40
:10153C00F0D17B681B6803F00803002B3AD07B6862
:10154C009B69002B19D0174B01221A60FFF79AF9EF
:10155C00386108E0FFF796F902463B69D31A022B73
:10156C0001D9032360E10D4B5B6A03F00203002BEE
:10157C00F0D0012000F0D8FA1CE00A4B00221A60CF
:10158C00FFF780F938610FE0FFF77CF902463B6901
:10159C00D31A022B08D9032346E100BF00100240E6
:1015AC000000424280044242924B5B6A03F0020309
:1015BC00002BE9D17B681B6803F00403002B00F0BF
:1015CC00A6800023FB758B4BDB6903F08053002B4B
:1015DC000DD1884BDB69874A43F08053D361854B2F
:1015EC00DB6903F08053BB60BB680123FB75824B46
:1015FC001B6803F48073002B18D17F4B1B687E4A49
:10160C0043F480731360FFF73DF9386108E0FFF78E
:10161C0039F902463B69D31A642B01D9032303E140
:10162C00754B1B6803F48073002BF0D07B68DB6870
:10163C00012B06D16F4B1B6A6E4A43F001031362F8
:10164C002DE07B68DB68002B0CD16A4B1B6A694A66
:10165C0023F001031362674B1B6A664A23F00403F1
:10166C0013621CE07B68DB68052B0CD1614B1B6A99
:10167C00604A43F0040313625E4B1B6A5D4A43F0FD
:10168C00010313620BE05B4B1B6A5A4A23F0010304
:10169C001362584B1B6A574A23F0040313627B688E
:1016AC00DB68002B15D0FFF7EDF838610AE0FFF787
:1016BC00E9F802463B69D31A41F28832934201D9C8
:1016CC000323B1E04B4B1B6A03F00203002BEED05B
:1016DC0014E0FFF7D7F838610AE0FFF7D3F80246B9
:1016EC003B69D31A41F28832934201D903239BE020
:1016FC00404B1B6A03F00203002BEED1FB7D012B48
:10170C0005D13C4BDB693B4A23F08053D3617B68AA
:10171C00DB69002B00F08780364B5B6803F00C0311
:10172C00082B61D07B68DB69022B46D1334B00223E
:10173C001A60FFF7A7F8386108E0FFF7A3F8024634
:10174C003B69D31A022B01D903236DE0294B1B688B
:10175C0003F00073002BF0D17B681B6AB3F5803F5C
:10176C0008D1244B5B6823F400327B689B682149C9
:10177C0013434B601F4B5B6823F474127B68196A2C
:10178C007B685B6A0B431B4913434B601B4B012269
:10179C001A60FFF777F8386108E0FFF773F8024634
:1017AC003B69D31A022B01D903233DE0114B1B6873
:1017BC0003F00073002BF0D035E0104B00221A60C0
:1017CC00FFF760F8386108E0FFF75CF802463B6908
:1017DC00D31A022B01D9032326E0064B1B6803F016
:1017EC000073002BF0D11EE07B68DB69012B07D165
:1017FC00012319E0001002400070004060004242DA
:10180C000B4B5B68FB60FB6803F480327B681B6AE4
:10181C009A4206D1FB6803F470127B685B6A9A42A9
:10182C0001D0012300E0002318461837BD4680BDC7
:10183C000010024080B584B000AF786039607B68DE
:10184C00002B01D10123D0E06A4B1B6803F0070386
:10185C003A689A4210D9674B1B6823F00702654916
:10186C003B6813430B60634B1B6803F007033A6838
:10187C009A4201D00123B8E07B681B6803F0020395
:10188C00002B20D07B681B6803F00403002B05D0D1
:10189C00594B5B68584A43F4E06353607B681B68A0
:1018AC0003F00803002B05D0534B5B68524A43F4FA
:1018BC0060535360504B5B6823F0F0027B689B686D
:1018CC004D4913434B607B681B6803F00103002BED
:1018DC0040D07B685B68012B07D1474B1B6803F436
:1018EC000033002B15D101237FE07B685B68022B52
:1018FC0007D1414B1B6803F00073002B09D1012366
:10190C0073E03D4B1B6803F00203002B01D1012354
:10191C006BE0394B5B6823F003027B685B683649EC
:10192C0013434B60FEF7AEFFF8600AE0FEF7AAFF28
:10193C000246FB68D31A41F28832934201D9032341
:10194C0053E02D4B5B6803F00C027B685B689B00DB
:10195C009A42EBD1274B1B6803F007033A689A4273
:10196C0010D2244B1B6823F0070222493B68134317
:10197C000B60204B1B6803F007033A689A4201D0B6
:10198C00012332E07B681B6803F00403002B08D0B2
:10199C00194B5B6823F4E0627B68DB6816491343E0
:1019AC004B607B681B6803F00803002B09D0124BBB
:1019BC005B6823F460527B681B69DB000E491343A0
:1019CC004B6000F021F802460B4B5B681B0903F0DF
:1019DC000F030A49CB5C22FA03F3094A1360094B43
:1019EC001B681846FEF70CFF002318461037BD463F
:1019FC0080BD00BF00200240001002400C300008E7
:101A0C00000000200400002090B48AB000AF294BE5
:101A1C003C1D0FCB84E80F0040F201233B800023D8
:101A2C00FB610023BB6100237B6200237B610023ED
:101A3C003B62214B5B68FB61FB6903F00C03042BDD
:101A4C0002D0082B03D02BE01C4B3B622BE0FB6934
:101A5C009B0C03F00F0328333B4413F8243C7B61AD
:101A6C00FB6903F48033002B12D0134B5B685B0CC7
:101A7C0003F0010328333B4413F8283CBB617B691A
:101A8C000E4A03FB02F2BB69B2FBF3F37B6204E088
:101A9C007B690B4A02FB03F37B627B6A3B6202E0CD
:101AAC00064B3B6200BF3B6A18462837BD4690BCCC
:101ABC00704700BFFC2F00080010024000127A0093
:101ACC0000093D0080B400AF024B1B681846BD46B0
:101ADC0080BC70470000002080B500AFFFF7F2FF1C
:101AEC000246054B5B681B0A03F007030349CB5CFA
:101AFC0022FA03F3184680BD001002401C30000887
:101B0C0080B500AFFFF7DEFF0246054B5B68DB0AD2
:101B1C0003F007030349CB5C22FA03F3184680BD9C
:101B2C00001002401C30000880B485B000AF786013
:101B3C000A4B1B680A4AA2FB03235B0A7A6802FB66
:101B4C0003F3FB6000BFFB685A1EFA60002BF9D14F
:101B5C0000BF00BF1437BD4680BC7047000000209A
:101B6C00D34D621080B582B000AF78607B68002BDB
:101B7C0001D101233FE07B6893F83D30DBB2002BB1
:101B8C0006D17B68002283F83C207868FEF742FD82
:101B9C007B68242283F83D207B681B68DA687B68AD
:101BAC001B6822F40052DA60786800F025FC7B6830
:101BBC001B681A697B681B6822F490421A617B6867
:101BCC001B685A697B681B6822F02A025A617B6881
:101BDC001B68DA687B681B6842F40052DA607B6829
:101BEC0000221A647B68202283F83D207B68202227
:101BFC0083F83E20002318460837BD4680BD80B5CB
:101C0C008AB002AFF860B9603B601346FB800023DA
:101C1C007B61FB6893F83D30DBB2202B7CD1BB6839
:101C2C00002B02D0FB88002B01D1012375E0FB684F
:101C3C0093F83C30012B01D102236EE0FB680122AA
:101C4C0083F83C20FB6800221A64FB68212283F88D
:101C5C003D20FEF717FE7861FB68FA889A84FB68D2
:101C6C00FA88DA84FB689B68B3F5805F08D1FB685F
:101C7C001B69002B04D10023FB61BB68BB6103E033
:101C8C00BB68FB610023BB61FB68002283F83C202E
:101C9C002AE03B6800937B6900228021F86800F001
:101CAC0011FA0346002B01D0032336E0FB69002B0D
:101CBC000BD1BB691B881A46FB681B68C2F3080270
:101CCC005A60BB690233BB6107E0FB691A78FB6899
:101CDC001B685A60FB690133FB61FB68DB8C9BB2B0
:101CEC00013B9AB2FB68DA84FB68DB8C9BB2002B5D
:101CFC00CFD13B6800937B6900224021F86800F04B
:101D0C00E1F90346002B01D0032306E0FB682022F7
:101D1C0083F83D20002300E0022318462037BD46FF
:101D2C0080BD000080B58AB000AF78607B681B680E
:101D3C001B687B627B681B68DB683B627B681B688B
:101D4C005B69FB610023BB6100237B617B6A03F051
:101D5C000F03BB61BB69002B0DD17B6A03F0200321
:101D6C00002B08D03B6A03F02003002B03D07868CB
:101D7C0000F099FA7BE1BB69002B00F0B180FB69A4
:101D8C0003F00103002B05D13B6A03F49073002B85
:101D9C0000F0A6807B6A03F00103002B0AD03B6A9B
:101DAC0003F48073002B05D07B681B6C43F001029D
:101DBC007B681A647B6A03F00403002B0AD0FB696E
:101DCC0003F00103002B05D07B681B6C43F002026F
:101DDC007B681A647B6A03F00203002B0AD0FB6950
:101DEC0003F00103002B05D07B681B6C43F004024D
:101DFC007B681A647B6A03F00803002B0FD03B6AE4
:101E0C0003F02003002B04D1FB6903F00103002B2A
:101E1C0005D07B681B6C43F008027B681A647B68F6
:101E2C001B6C002B00F01E817B6A03F02003002B3F
:101E3C0007D03B6A03F02003002B02D0786800F037
:101E4C0032FA7B681B685B6903F04003002B14BFFC
:101E5C0001230023DBB27B617B681B6C03F008035E
:101E6C00002B02D17B69002B31D0786800F074F91B
:101E7C007B681B685B6903F04003002B23D07B68F5
:101E8C001B685A697B681B6822F040025A617B68A8
:101E9C009B6B002B13D07B689B6B764A5A637B68D9
:101EAC009B6B1846FEF740FE0346002B16D07B6852
:101EBC009B6B5B6B7A68926B104698470EE0786868
:101ECC0000F0ECF80AE0786800F0E8F806E07868D2
:101EDC0000F0E4F87B6800221A64C3E000BFC1E0A4
:101EEC007B681B6B012B40F0A1807B6A03F0100315
:101EFC00002B00F09B803B6A03F01003002B00F0DA
:101F0C0095800023FB607B681B681B68FB607B680B
:101F1C001B685B68FB60FB687B681B685B6903F094
:101F2C004003002B4ED07B689B6B1B685B683B822D
:101F3C003B8A002B00F098807B689B8D3A8A9A42F2
:101F4C0080F092807B683A8ADA857B689B6B9B6910
:101F5C00202B2BD07B681B68DA687B681B6822F40B
:101F6C008072DA607B681B685A697B681B6822F098
:101F7C0001025A617B681B685A697B681B6822F0F6
:101F8C0040025A617B68202283F83E207B68002245
:101F9C001A637B681B68DA687B681B6822F0100286
:101FAC00DA607B689B6B1846FEF783FD7B689A8D25
:101FBC007B68DB8D9BB2D31A9BB21946786800F014
:101FCC0076F851E07B689A8D7B68DB8D9BB2D31AD7
:101FDC007B827B68DB8D9BB2002B47D07B8A002BEE
:101FEC0044D07B681B68DA687B681B6822F49072AB
:101FFC00DA607B681B685A697B681B6822F00102F7
:10200C005A617B68202283F83E207B6800221A6389
:10201C007B681B68DA687B681B6822F01002DA6048
:10202C007B8A1946786800F042F81FE07B6A03F05F
:10203C008003002B08D03B6A03F08003002B03D0F5
:10204C00786800F0C9F812E07B6A03F04003002BBB
:10205C000DD03B6A03F04003002B08D0786800F0E9
:10206C000AF904E000BF02E000BF00E000BF28371F
:10207C00BD4680BDBD21000880B483B000AF786040
:10208C0000BF0C37BD4680BC704780B483B000AF36
:10209C00786000BF0C37BD4680BC704780B483B0FD
:1020AC0000AF786000BF0C37BD4680BC704780B471
:1020BC0083B000AF78600B467B8000BF0C37BD4609
:1020CC0080BC704780B584B000AFF860B9603B60ED
:1020DC001346FB712CE0BB69B3F1FF3F28D0BB6901
:1020EC00002B07D0FEF7CEFB02463B68D31ABA6929
:1020FC009A421DD2FB681B68DA68FB681B6822F4E5
:10210C00D072DA60FB681B685A69FB681B6822F0A6
:10211C0001025A61FB68202283F83D20FB682022D3
:10212C0083F83E20FB68002283F83C2003230FE059
:10213C00FB681B681A68BB681340BA689A420CBFEC
:10214C0001230023DBB21A46FB799A42C3D0002349
:10215C0018461037BD4680BD80B483B000AF7860A0
:10216C007B681B68DA687B681B6822F49072DA6003
:10217C007B681B685A697B681B6822F001025A61F4
:10218C007B681B6B012B07D17B681B68DA687B684B
:10219C001B6822F01002DA607B68202283F83E2054
:1021AC007B6800221A6300BF0C37BD4680BC7047A9
:1021BC0080B584B000AF78607B685B6AFB60FB68BD
:1021CC000022DA85FB680022DA84F868FFF766FFE4
:1021DC0000BF1037BD4680BD80B485B000AF7860BD
:1021EC007B6893F83D30DBB2212B3ED17B689B683A
:1021FC00B3F5805F14D17B681B69002B10D17B6811
:10220C001B6AFB60FB681B881A467B681B68C2F361
:10221C0008025A607B681B6A9A1C7B681A6208E089
:10222C007B681B6A591C7A6811621A787B681B6878
:10223C005A607B68DB8C9BB2013B9BB27A68194677
:10224C00D184002B0FD17B681B68DA687B681B6814
:10225C0022F08002DA607B681B68DA687B681B6896
:10226C0042F04002DA60002300E0022318461437E3
:10227C00BD4680BC704780B582B000AF78607B688B
:10228C001B68DA687B681B6822F04002DA607B68A6
:10229C00202283F83D207868FFF7EEFE00231846D5
:1022AC000837BD4680BD80B586B000AF78607B68CE
:1022BC0093F83E30DBB2222B40F099807B689B6810
:1022CC00B3F5805F17D17B681B69002B13D10023FA
:1022DC007B617B689B6A3B617B681B685B689BB21C
:1022EC00C3F308039AB23B691A807B689B6A9A1CF9
:1022FC007B689A6226E07B689B6A7B6100233B616A
:10230C007B689B68B3F5805F07D07B689B68002B6C
:10231C000AD17B681B69002B06D17B681B685B6844
:10232C00DAB27B691A7008E07B681B685B68DBB209
:10233C0003F07F03DAB27B691A707B689B6A5A1CC4
:10234C007B689A627B68DB8D9BB2013B9BB27A689F
:10235C001946D185002B48D17B681B68DA687B68ED
:10236C001B6822F02002DA607B681B68DA687B68E5
:10237C001B6822F48072DA607B681B685A697B6880
:10238C001B6822F001025A617B68202283F83E20F0
:10239C007B681B6B012B23D17B6800221A637B6843
:1023AC001B68DA687B681B6822F01002DA607B68B5
:1023BC001B681B6803F01003102B0AD10023FB6071
:1023CC007B681B681B68FB607B681B685B68FB6039
:1023DC00FB687B689B8D19467868FFF768FE02E006
:1023EC007868FFF752FE002302E0002300E002238E
:1023FC0018461837BD4680BD80B584B000AF7860F4
:10240C007B681B681B6923F440517B68DA687B6826
:10241C001B680A431A617B689A687B681B691A43BC
:10242C007B685B691343BB607B681B68DB6823F4C8
:10243C00B05323F00C037A681268B9680B43D3606D
:10244C007B681B685B6923F440717B689A697B68C5
:10245C001B680A435A617B681B682C4A934203D160
:10246C00FFF74EFBF86002E0FFF736FBF860FA6806
:10247C0013469B0013449A001A447B685B689B00CC
:10248C00B2FBF3F3224AA2FB03235B091901FA689E
:10249C0013469B0013449A001A447B685B689B00AC
:1024AC00B2FBF3F21A4BA3FB02035B09642000FBA3
:1024BC0003F3D31A1B013233154AA2FB03235B0926
:1024CC0003F0F0031944FA6813469B0013449A0076
:1024DC001A447B685B689B00B2FBF3F20C4BA3FBCA
:1024EC0002035B09642000FB03F3D31A1B01323394
:1024FC00074AA2FB03235B0903F00F027B681B68EE
:10250C000A449A6000BF1037BD4680BD00380140B8
:10251C001F85EB51014B1868704700BF0C00002061
:10252C0070B500260C4D0D4C641BA410A64209D1AD
:10253C0000F0B0FC00260A4D0A4C641BA410A64205
:10254C0005D170BD55F8043B98470136EEE755F8B8
:10255C00043B98470136F2E7583000085830000821
:10256C00583000085C30000803460244934200D106
:10257C00704703F8011BF9E70CB430B5174B0C1E70
:10258C001D689DB008DA8B234FF0FF302B601DB017
:10259C00BDE8304002B070474FF40273ADF8143010
:1025AC000CBF234604F1FF33049307934FF6FF73DC
:1025BC0002900690ADF81630284621AB209A02A95D
:1025CC00019300F069F8431CBCBF8B232B60002CDB
:1025DC00DDD00022029B1A70D9E700BF0C0000204E
:1025EC002DE9F0478E6882469E420C4690461F4667
:1025FC0038D88A8912F4906F32D025680969013372
:10260C00A5EB010965694B4405EB450505EBD57553
:10261C006D109D4238BF1D46530531D5294600F03B
:10262C006FFB064650B90C234FF0FF30CAF8003050
:10263C00A38943F04003A381BDE8F0874A46216992
:10264C0000F0CEFAA38923F4906343F08003A381B6
:10265C0026614E4426603E466561A5EB0905A560E2
:10266C00BE4200D93E4632464146206800F0C6FACA
:10267C00A36800209B1BA360236833442360DBE723
:10268C002A4600F0B1FB06460028E1D150462169EC
:10269C0000F0CEFAC7E700002DE9F04F98468B8981
:1026AC0007461B060D4614469DB00ED50B6963B943
:1026BC00402100F025FB2860286120B90C233B60E9
:1026CC004FF0FF30D1E040236B61002309932023AE
:1026DC008DF8293030234FF00109CDF80C80DFF84C
:1026EC00A4818DF82A3023469A4613F8012B0AB19F
:1026FC00252AF9D1BAEB040B0BD05B4622462946AE
:10270C003846FFF76DFF013000F0AA80099A5A4451
:10271C0009929AF80030002B00F0A28000234FF0B1
:10272C00FF32CDE905230AF1010A049307938DF8D2
:10273C0053301A935446052214F8011B514800F0EB
:10274C0041FA049AD8B9D00644BF20238DF85330EF
:10275C00110744BF2B238DF853309AF800302A2BE5
:10276C0015D0544600204FF00A0C079A214611F858
:10277C00013B303B092B4ED9B0B1079214E0A0EBD2
:10278C00080309FA03F31343A2460493D2E7039B0D
:10279C00191D1B680391002BBBBF5B4242F0020268
:1027AC0007930793B8BF049223782E2B0CD1637830
:1027BC002A2B35D1039B02341A1D1B680392002B64
:1027CC00B8BF4FF0FF330593DFF8BCA0032250468F
:1027DC00217800F0F7F940B14023A0EB0A0003FA8E
:1027EC0000F0049B01340343049314F8011B0622EC
:1027FC0026488DF8281000F0E5F9002838D0244B35
:10280C001BBB039B073323F0070308330393099B7C
:10281C003344099367E70C4601200CFB0232A5E711
:10282C0000234FF00A0C194601340593204610F88A
:10283C00012B303A092A03D9002BC5D00591C3E7E7
:10284C00044601230CFB0121F0E703AB00932A465D
:10285C003846104B04A9AFF30080421C0646D6D173
:10286C00AB895B063FF52CAF09981DB0BDE8F08F26
:10287C0003AB00932A463846064B04A900F07CF8BB
:10288C00EBE700BF243000082A3000082E30000887
:10289C0000000000ED2500082DE9F047164699468A
:1028AC008A680B6907469342B8BF1346336091F8A8
:1028BC0043200C46DDF820800AB1013333602368D5
:1028CC00990642BF336802333360256815F006055C
:1028DC0006D104F1190AE36832689B1AAB4228DC72
:1028EC0094F84320131E226818BF012392062DD49E
:1028FC004946384604F14302C047013020D02368D2
:10290C00E56803F00603042B18BF002532684FF06E
:10291C000006A36808BFAD1A226908BF25EAE57551
:10292C009342C4BF9B1AED181A34B5421AD1002039
:10293C0008E00123524649463846C047013003D1CE
:10294C004FF0FF30BDE8F0870135C4E73020E118C7
:10295C0081F843005A1C94F845102244023382F843
:10296C004310C5E70123224649463846C04701308B
:10297C00E6D00136D9E700002DE9FF470F7E9146DE
:10298C00782F80460C469A460C9D01F1430207D8DD
:10299C00622F0AD8002F00F0D980582F00F0A480A5
:1029AC0004F1420584F842703AE0A7F16303152B59
:1029BC00F6D801A151F823F01D2A0008312A00088D
:1029CC00AD290008AD290008AD290008AD29000883
:1029DC00312A0008AD290008AD290008AD290008EE
:1029EC00AD2900083F2B0008612A0008212B0008A4
:1029FC00AD290008AD290008612B0008AD2900089D
:102A0C00612A0008AD290008AD290008292B00080F
:102A1C002B681A1D1B682A6004F1420584F84230A9
:102A2C000123A4E020682968060601F104030AD5F5
:102A3C000E682B60002E03DA2D23764284F8433087
:102A4C000A235E4819E00E6810F0400F2B6018BF87
:102A5C0036B2EFE72B682068191D2960010601D5F5
:102A6C001E6802E04606FBD51E886F2F0CBF08239C
:102A7C000A235248002184F843106568002DA8BF32
:102A8C002168A560A4BF21F0040121600EB9002DBE
:102A9C004DD01546B6FBF3F103FB1167C75D05F886
:102AAC00017D3746BB420E46F4D9082B0BD1236867
:102ABC00DE0708D5236961689942DEBF302305F82B
:102ACC00013C05F1FF35521B22614B462146404625
:102ADC00CDF800A003AAFFF7DFFE01304CD14FF078
:102AEC00FF3004B0BDE8F087344881F845702968A0
:102AFC00236851F8046B29601D0614D5DF0744BF09
:102B0C0043F0200323601EB9236823F020032360C5
:102B1C001023AFE7236843F0200323607823284871
:102B2C0084F84530E3E7590648BFB6B2E6E71546E8
:102B3C00BBE72B682668181D6169286035061B6881
:102B4C0001D5196002E07006FBD5198000231546EB
:102B5C002361BAE72B6800211A1D2A601D68626880
:102B6C00284600F02FF808B1401B606063682361B1
:102B7C00002384F84330A8E72A4649464046236997
:102B8C00D0470130ABD023689B0713D4E068039B7C
:102B9C009842B8BF1846A4E701233246494640463E
:102BAC00D04701309BD00135E36803995B1AAB42E7
:102BBC00F2DCEBE7002504F11906F5E735300008E7
:102BCC0046300008034610B5C9B202449342184679
:102BDC0001D1002003E0047801338C42F6D110BD02
:102BEC000A44914200F1FF3300D1704710B511F83F
:102BFC00014B914203F8014FF9D110BD884210B539
:102C0C0001EB020402D98442234607D8431EA14299
:102C1C0008D011F8012B03F8012FF8E70146024404
:102C2C008A4200D110BD13F8014D02F8014DF7E7AF
:102C3C0038B50546002940D051F8043C0C1F002B38
:102C4C00B8BFE41800F010F91C4A136833B963607C
:102C5C0014602846BDE8384000F00CB9A34208D9EE
:102C6C00206821188B4201BF19685B680918216024
:102C7C00EDE71A465B680BB1A342FAD911685018FC
:102C8C00A0420BD120680144501883421160E0D15E
:102C9C0018685B68014411605360DAE702D90C23B1
:102CAC002B60D6E7206821188B4201BF19685B683E
:102CBC000918216063605460CBE738BDF800002030
:102CCC0070B50E4E0C463168054611B900F0BCF8D3
:102CDC0030602146284600F0B7F8431C0AD0C41CCB
:102CEC0024F00304A04207D0211A284600F0ACF8C7
:102CFC00013001D14FF0FF34204670BDFC000020A4
:102D0C002DE9F041CD1C25F0030508350C2D38BFFD
:102D1C000C25002D074601DBA94205D90C23002602
:102D2C003B603046BDE8F0812E4E00F09DF83368D4
:102D3C001C4634BB29463846FFF7C2FF431C0446E9
:102D4C004DD134682646002E40D123683146384692
:102D5C0004EB030800F078F880453AD1216803357C
:102D6C006D1A25F0030508350C2D38BF0C25384697
:102D7C002946FFF7A5FF01302BD023682B44236095
:102D8C000EE02268521B1ED40B2A16D96119A342DD
:102D9C00256018BF5960636808BF316062514B6091
:102DAC00384604F10B0600F065F826F00706231DE3
:102DBC00F21AB6D09B1BA350B3E76268A3420CBFB8
:102DCC0032605A60ECE723466468B2E734467668B2
:102DDC00B9E70C2338463B6000F04CF8A1E72560BE
:102DEC00DEE700BFF80000202DE9F04180461446D4
:102DFC000E4621B91146BDE8F041FFF781BF2AB953
:102E0C00FFF716FF25462846BDE8F08100F038F89C
:102E1C008442074602D8B4EB500F12D821464046E4
:102E2C00FFF76EFF05460028EDD0BC422246314626
:102E3C0028BF3A46FFF7D4FE31464046FFF7F8FE6E
:102E4C00E1E73546DFE7000038B50023054D0446C1
:102E5C0008462B60FDF75CFC431C02D12B6803B1C8
:102E6C00236038BD00010020014800F011B800BFFC
:102E7C0004010020014800F00CB800BF0401002040
:102E8C0051F8043C181F002BBCBF0B58C0187047DE
:102E9C0070477047F8B500BFF8BC08BC9E46704739
:0C2EAC00F8B500BFF8BC08BC9E4670479B
:102EB8000A0A0D21212145726173652070616765D9
:102EC8002036342121210A0D000000000A21212189
:102ED80057726974652121210A0D00000A212121F8
:102EE8004572617365207061676520363321212141
:102EF8000A0D00000A212121526561642121210A5D
:102F08000D0000004572726F7220466C6173685F35
:102F1800457261736528293A20256C750A0D0000F1
:102F2800457261736520466C6173682066726F6DC7
:102F380020616464726573732030782530386C586A
:102F480020746F2061646472657373203078253053
:102F5800386C58204F4B0A0D000000004572726F04
:102F68007220466C6173685F577269746528293AE4
:102F780020256C750A0D000057726974652033327C
:102F8800206269747320284865783A2030782530A3
:102F9800386C582920746F206164647265737320DB
:102FA80030782530386C58204F4B0A0D000000004F
:102FB8005265616420333220626974732028446545
:102FC800633A20256C7520094865783A20307825C1
:102FD80030386C58290000002066726F6D206164DB
:102FE80064726573732030782530386C58200A0D68
:102FF8000000000002030405060708090A0B0C0D6F
:103008000E0F101000000000000000000102030471
:10301800060708090000000001020304232D302BD5
:103028002000686C4C0065666745464700303132C1
:103038003334353637383941424344454600303118
:103048003233343536373839616263646566000077
:04305800310100083A
:04305C000D0100085A
:103060000024F40010000000010000001000002007
:103070000000000000000000000000000000000050
:103080000000000000000000000000000000000040
:103090000000000000000000000000000000000030
:1030A0000000000000000000000000000000000020
:1030B0000000000000000000000000000000000010
:1030C0000000000000000000000000000000000000
:040000050800079553
:00000001FF
